:020000040800F2
:1000000000500020952400084D22000859220008C5
:100010005F220008652200086B2200080000000033
:100020000000000000000000000000007122000835
:100030007D220008000000008922000895220008A7
:10004000DD240008DD240008DD240008DD2400088C
:10005000DD240008DD240008A1220008DD240008BA
:10006000DD240008AF220008DD240008DD2400089C
:10007000DD240008DD240008DD240008DD2400085C
:10008000DD240008DD240008DD240008DD2400084C
:10009000DD240008DD240008DD240008DD2400083C
:1000A000DD240008DD240008DD240008DD2400082C
:1000B000DD240008DD240008BD220008DD2400083E
:1000C000DD240008DD240008DD240008DD2400080C
:1000D000DD240008DD240008DD240008DD240008FC
:1000E000DD240008DD240008DD24000800000000F5
:1000F0000000000000000000000000000000000000
:0C01000000000000000000005FF808F1A3
:1001100010B5054C237833B9044B13B10448AFF341
:1001200000800123237010BD180200200000000091
:10013000EC8E000808B5034B1BB103490348AFF32D
:10014000008008BD000000001C020020EC8E0008AA
:10015000034613F8012B002AFBD1181A0138704707
:1001600081F0004102E000BF83F0004330B54FEA68
:1001700041044FEA430594EA050F08BF90EA020FD5
:100180001FBF54EA000C55EA020C7FEA645C7FEA68
:10019000655C00F0E2804FEA5454D4EB5555B8BF8B
:1001A0006D420CDD2C4480EA020281EA030382EAFC
:1001B000000083EA010180EA020281EA0303362D8E
:1001C00088BF30BD11F0004F4FEA01314FF4801C61
:1001D0004CEA113102D0404261EB410113F0004F73
:1001E0004FEA03334CEA133302D0524263EB43032A
:1001F00094EA050F00F0A780A4F10104D5F1200EC8
:100200000DDB02FA0EFC22FA05F2801841F1000122
:1002100003FA0EF2801843FA05F359410EE0A5F1F6
:1002200020050EF1200E012A03FA0EFC28BF4CF027
:10023000020C43FA05F3C01851EBE37101F00045DD
:1002400007D54FF0000EDCF1000C7EEB00006EEBEA
:100250000101B1F5801F1BD3B1F5001F0CD3490874
:100260005FEA30004FEA3C0C04F101044FEA4452CB
:1002700012F5800F80F09A80BCF1004F08BF5FEA52
:10028000500C50F1000041EB045141EA050130BD32
:100290005FEA4C0C404141EB0101013C28BFB1F544
:1002A000801FE9D291F0000F04BF01460020B1FA8F
:1002B00081F308BF2033A3F10B03B3F120020CDA62
:1002C0000C3208DD02F1140CC2F10C0201FA0CF040
:1002D00021FA02F10CE002F11402D8BFC2F1200CA5
:1002E00001FA02F120FA0CFCDCBF41EA0C0190405B
:1002F000E41AA2BF01EB0451294330BD6FEA0404A4
:100300001F3C1CDA0C340EDC04F11404C4F120028E
:1003100020FA04F001FA02F340EA030021FA04F3A0
:1003200045EA030130BDC4F10C04C4F1200220FAF7
:1003300002F001FA04F340EA0300294630BD21FA35
:1003400004F0294630BD94F0000F83F4801306BFFB
:1003500081F480110134013D4EE77FEA645C18BFEF
:100360007FEA655C29D094EA050F08BF90EA020F86
:1003700005D054EA000C04BF1946104630BD91EA7E
:10038000030F1EBF0021002030BD5FEA545C05D181
:100390004000494128BF41F0004130BD14F58004C0
:1003A0003CBF01F5801130BD01F0004545F0FE4134
:1003B00041F470014FF0000030BD7FEA645C1ABF69
:1003C000194610467FEA655C1CBF0B46024650EAA0
:1003D000013406BF52EA033591EA030F41F40021CC
:1003E00030BD00BF90F0000F04BF0021704730B552
:1003F0004FF4806404F132044FF000054FF0000127
:1004000050E700BF90F0000F04BF0021704730B5E7
:100410004FF4806404F1320410F0004548BF4042BC
:100420004FF000013EE700BF42004FEAE2014FEA11
:1004300031014FEA02701FBF12F07F4393F07F4FEC
:1004400081F06051704732F07F4208BF704793F0EF
:100450007F4F04BF41F40021704730B54FF4607402
:1004600001F0004521F000411CE700BF50EA010205
:1004700008BF704730B54FF000050AE050EA0102AE
:1004800008BF704730B511F0004502D5404261EB1E
:1004900041014FF4806404F132045FEA915C3FF45F
:1004A000D8AE4FF003025FEADC0C18BF03325FEAFC
:1004B000DC0C18BF033202EBDC02C2F1200300FAAD
:1004C00003FC20FA02F001FA03FE40EA0E0021FAD2
:1004D00002F11444BDE600BF70B54FF0FF0C4CF4C0
:1004E000E06C1CEA11541DBF1CEA135594EA0C0F72
:1004F00095EA0C0F00F0DEF82C4481EA030621EAAD
:100500004C5123EA4C5350EA013518BF52EA0335E7
:1005100041F4801143F4801338D0A0FB02CE4FF099
:100520000005E1FB02E506F00042E0FB03E54FF0C9
:100530000006E1FB03569CF0000F18BF4EF0010EC1
:10054000A4F1FF04B6F5007F64F5407404D25FEABD
:100550004E0E6D4146EB060642EAC62141EA555170
:100560004FEAC52040EA5E504FEACE2EB4F1FD0CB2
:1005700088BFBCF5E06F1ED8BEF1004F08BF5FEA30
:10058000500E50F1000041EB045170BD06F00046E2
:1005900046EA010140EA020081EA0301B4EB5C048F
:1005A000C2BFD4EB0C0541EA045170BD41F4801187
:1005B0004FF0000E013C00F3AB8014F1360FDEBFAC
:1005C000002001F0004170BDC4F10004203C35DA88
:1005D0000C341BDC04F11404C4F1200500FA05F30B
:1005E00020FA04F001FA05F240EA020001F00042AC
:1005F00021F0004110EBD37021FA04F642EB060122
:100600005EEA430E08BF20EAD37070BDC4F10C044B
:10061000C4F1200500FA04F320FA05F001FA04F20F
:1006200040EA020001F0004110EBD37041F10001FB
:100630005EEA430E08BF20EAD37070BDC4F1200506
:1006400000FA05F24EEA020E20FA04F301FA05F26E
:1006500043EA020321FA04F001F0004121FA04F216
:1006600020EA020000EBD3705EEA430E08BF20EAE6
:10067000D37070BD94F0000F0FD101F00046400020
:1006800041EB010111F4801F08BF013CF7D041EAA2
:10069000060195F0000F18BF704703F000465200A6
:1006A00043EB030313F4801F08BF013DF7D043EA77
:1006B0000603704794EA0C0F0CEA135518BF95EA2D
:1006C0000C0F0CD050EA410618BF52EA4306D1D1B4
:1006D00081EA030101F000414FF0000070BD50EAD3
:1006E000410606BF1046194652EA430619D094EA5D
:1006F0000C0F02D150EA013613D195EA0C0F05D147
:1007000052EA03361CBF104619460AD181EA03019A
:1007100001F0004141F0FE4141F470014FF0000052
:1007200070BD41F0FE4141F4780170BD70B54FF0ED
:10073000FF0C4CF4E06C1CEA11541DBF1CEA13556D
:1007400094EA0C0F95EA0C0F00F0A7F8A4EB05044F
:1007500081EA030E52EA03354FEA013100F0888046
:100760004FEA03334FF0805545EA131343EA12630F
:100770004FEA022245EA111545EA10654FEA0026C4
:100780000EF000419D4208BF964244F1FD0404F57D
:10079000407402D25B084FEA3202B61A65EB0305D9
:1007A0005B084FEA32024FF480104FF4002CB6EB96
:1007B000020E75EB030E22BFB61A754640EA0C0016
:1007C0005B084FEA3202B6EB020E75EB030E22BF56
:1007D000B61A754640EA5C005B084FEA3202B6EB97
:1007E000020E75EB030E22BFB61A754640EA9C0056
:1007F0005B084FEA3202B6EB020E75EB030E22BF26
:10080000B61A754640EADC0055EA060E18D04FEAE3
:10081000051545EA16754FEA06164FEAC30343EA83
:1008200052734FEAC2025FEA1C1CC0D111F4801F50
:100830000BD141EA00014FF000004FF0004CB6E749
:1008400011F4801F04BF01430020B4F1FD0C88BFE8
:10085000BCF5E06F3FF6AFAEB5EB030C04BFB6EBF3
:10086000020C5FEA500C50F1000041EB045170BDE6
:100870000EF0004E4EEA113114EB5C04C2BFD4EB13
:100880000C0541EA045170BD41F480114FF0000E97
:10089000013C90E645EA060E8DE60CEA135594EA13
:1008A0000C0F08BF95EA0C0F3FF43BAF94EA0C0F16
:1008B0000AD150EA01347FF434AF95EA0C0F7FF48B
:1008C00025AF104619462CE795EA0C0F06D152EADF
:1008D00003353FF4FDAE1046194622E750EA4106C3
:1008E00018BF52EA43067FF4C5AE50EA41047FF4D4
:1008F0000DAF52EA43057FF4EBAE12E74FF0FF3C39
:1009000006E000BF4FF0010C02E000BF4FF0010C09
:100910004DF804CD4FEA410C7FEA6C5C4FEA430C82
:1009200018BF7FEA6C5C1BD001B050EA410C0CBFD1
:1009300052EA430C91EA030F02BF90EA020F002033
:10094000704710F1000F91EA030F58BF994208BF9A
:1009500090422CBFD8176FEAE37040F00100704757
:100960004FEA410C7FEA6C5C02D150EA013C07D1AE
:100970004FEA430C7FEA6C5CD6D152EA033CD3D0F9
:100980005DF8040B704700BF8446104662468C46F3
:100990001946634600E000BF01B5FFF7B7FF002826
:1009A00048BF10F1000F01BD4DF808EDFFF7F4FF4F
:1009B0000CBF012000205DF808FB00BF4DF808EDDA
:1009C000FFF7EAFF34BF012000205DF808FB00BFFD
:1009D0004DF808EDFFF7E0FF94BF012000205DF81F
:1009E00008FB00BF4DF808EDFFF7CEFF94BF0120D4
:1009F00000205DF808FB00BF4DF808EDFFF7C4FFCD
:100A000034BF012000205DF808FB00BF4FEA410C15
:100A10007FEA6C5C02D150EA013C0AD14FEA430CF8
:100A20007FEA6C5C02D152EA033C02D14FF0000035
:100A300070474FF0010070474FEA410212F5001273
:100A400015D211D56FF47873B3EB625212D94FEA15
:100A5000C12343F0004343EA505311F0004F23FAFF
:100A600002F018BF404270474FF00000704750EA54
:100A7000013005D111F0004008BF6FF00040704711
:100A80004FF00000704700BF80B588B004AF7860B9
:100A90004FF47A7302930123019307F10F0300933C
:100AA00001237522D021786802F0C2FFFB7B682BFE
:100AB00041D10023BB734FF47A7302930123019356
:100AC00007F10E03009301236B22D021786802F016
:100AD000B5FE0723BB734FF47A730293012301938E
:100AE00007F10E03009301231922D021786802F048
:100AF000A5FE0023BB734FF47A7302930123019385
:100B000007F10E03009301231C22D021786802F024
:100B100095FE0023BB734FF47A7302930123019374
:100B200007F10E03009301231B22D021786802F005
:100B300085FE002300E0012318461037BD4680BD26
:100B400080B588B004AF786039604FF47A7302934F
:100B50000623019307F10803009301233B22D021D0
:100B6000786802F065FF3B7A1B021AB27B7A1BB2EF
:100B700013431AB23B681A80BB7A1B021AB2FB7A83
:100B80001BB213431AB23B685A803B7B1B021AB25A
:100B90007B7B1BB213431AB23B689A803B68B3F964
:100BA00000301846FFF72EFC4FF00002184BFFF7FD
:100BB000BDFD02460B463968C1E902233B68B3F923
:100BC00002301846FFF71EFC4FF00002104BFFF7F3
:100BD000ADFD02460B463968C1E904233B68B3F911
:100BE00004301846FFF70EFC07A3D3E90023FFF7F4
:100BF0009DFD02460B463968C1E9062300BF103748
:100C0000BD4680BDAFF30080000000000029CC404D
:100C10000000D04080B582B000AF396011461A465E
:100C20000346FB710B46BB7113467B717B79012B2D
:100C30000AD100F097F90346054A13603B681B7818
:100C4000312B01D100F0D6F900BF0837BD4680BD79
:100C5000B402002080B483B000AF396011461A4658
:100C60000346FB710B46BB7113467B7100BF0C370B
:100C7000BD4680BC7047000080B500AF044B3122F8
:100C80001A702021024801F0B3F800BF80BD00BFF8
:100C9000B802002080B500AF01222021124802F0E6
:100CA00058FC01224021104802F053FC012280210F
:100CB0000D4802F04EFC0D4804F072FD01F00CF9F5
:100CC00000F0D3F90A4A0B490B4801F0BFF80B4B6F
:100CD00001221A7000BF0A48FFF7D6FE0346012B17
:100CE000F9D000BF00BF80BD000801407C04002097
:100CF000150C0008550C000800000020B002002070
:100D00008803002080B582B000AF78607B68054A18
:100D1000934203D104490548FFF712FF00BF08378B
:100D2000BD4680BD7C0400203802002088030020DE
:100D300080B584B002AF464BB3F900301846FF23AC
:100D40000093002344F26822424901F087FB0346E6
:100D5000DAB2414B1A703E4BB3F902301846FF230A
:100D60000093002344F268223A4901F077FB0346DE
:100D7000DAB2394B5A70364BB3F904301846FF23B8
:100D80000093002344F26822324901F067FB0346D6
:100D9000DAB2314B9A700821304802F0C3FB0346A7
:100DA000012B0CBF01230023DBB21A462A4BDA7059
:100DB000294BDB78002B05D001228021274802F047
:100DC000C8FB04E000228021244802F0C2FB01F0AD
:100DD0008DF8BB1C184601F09DF87B881846FF2350
:100DE000009300234FF48052002101F037FB0346AB
:100DF000DAB2194B1A713B46184601F08BF83B8862
:100E00001846FF23009300234FF48052002101F085
:100E100025FB0346DAB2104B5A710F4B1B791A4669
:100E20003B88009313460E4A7F210E4805F0DEFDF5
:100E300003467B6079680B4800F0FCF801F060F82D
:100E40002021054800F0D4FF322001F0ABFB72E70F
:100E50003802002098BDFFFF9002002000080140EA
:100E6000088F0008D802002080B582B000AF03468A
:100E7000FB80FB88082B02D100F05CFE04E0FB88BD
:100E8000012B01D1FFF7F8FE00BF0837BD4680BD3A
:100E900080B500AF00224FF40061024802F059FB18
:100EA00000BF80BD0008014080B500AF01224FF4B3
:100EB0000061024802F04DFB00BF80BD0008014008
:100EC00080B500AF00224FF48051024802F041FB90
:100ED00000BF80BD0008014080B500AF01224FF483
:100EE0008051024802F035FB00BF80BD0008014080
:100EF00080B582B000AF0346FB71FB79002B03D0B5
:100F0000092002F062F902E0092002F06CF900BF4A
:100F10000837BD4680BD80B500AF0020FFF7E8FF71
:100F2000FFF7DAFFFFF7B4FF00F095FB00BF80BDCD
:100F300080B586B002AF0346FB7107F10F02F91DC1
:100F4000642300930123064804F048F90346002B6C
:100F500001D1FB7B00E0002318461037BD4680BD61
:100F6000DC03002080B500AF01F012FB03461846F9
:100F700080BD000080B400AF034B1B685B6A18465D
:100F8000BD4680BC704700BF3404002080B500AF70
:100F9000024804F0BBFB00BF80BD00BF340400204A
:100FA00080B586B000AF7860FFF7E4FF3861FFF7E7
:100FB000E1FFF860FA683B699A4204D2FA683B693B
:100FC000D31A7B6103E0FA683B69D31A7B617A69C3
:100FD0007B689A42EBD300BF00BF1837BD4680BD87
:100FE00080B483B000AF0346FB7100BF0C37BD4631
:100FF00080BC704780B400AF00BFBD4680BC704766
:1010000080B485B000AF0346FB71094B1B68FB60E1
:1010100000BFFB681B6803F08003002BF9D0FA794E
:10102000FB685A6000BF1437BD4680BC704700BFE4
:10103000C404002080B584B000AF7860396000231C
:10104000FB6009E07A68FB6813441B781846FFF7D9
:10105000D7FFFB680133FB60FA683B689A42F1D323
:1010600000BF00BF1037BD4680BD80B500AFFFF7A1
:101070008DFF0020FFF7B4FF00BF80BD80B500AF3B
:1010800001F02EFA00F013F800F0DEF900F0B4F8E9
:1010900000F0E0F800F014F900F060F800F0AAF9B0
:1010A00000F05AF9FFF7F6FDFFF742FEFCE780B5C6
:1010B00094B000AF07F1280328220021184605F05C
:1010C0002DF807F1140300221A605A609A60DA6062
:1010D0001A613B1D00221A605A609A60DA6002238E
:1010E000BB620123BB631023FB6302237B640023E9
:1010F000BB644FF46013FB6407F12803184603F048
:1011000059FA0346002B01D000F00AFA0F237B6145
:101110000223BB610023FB614FF480633B62002329
:101120007B6207F114030221184603F0C5FC034655
:10113000002B01D000F0F4F902237B604FF4004350
:10114000FB603B1D184603F04FFE0346002B01D009
:1011500000F0E6F900BF5037BD4680BD80B584B0D1
:1011600000AF3B1D00221A605A609A60204B214A52
:101170001A601F4B4FF480729A601D4B01221A7344
:101180001B4B00221A751A4B4FF46022DA61184B80
:1011900000225A60164B02221A61154801F026FA05
:1011A0000346002B01D000F0BBF900237B60012334
:1011B000BB600223FB603B1D19460D4801F0CEFCCD
:1011C0000346002B01D000F0ABF904237B6002231F
:1011D000BB603B1D1946064801F0C0FC0346002BCE
:1011E00001D000F09DF900BF1037BD4680BD00BFA3
:1011F000580300200024014080B500AF124B134A71
:101200001A60114B124A5A600F4B00229A600E4B23
:101210000022DA600C4B4FF480421A610A4B002224
:101220005A61094B00229A61074B0022DA61064B92
:1012300000221A62044802F0BDF90346002B01D0D7
:1012400000F06EF900BF80BD88030020005400400C
:10125000801A060080B500AF174B184A1A60164B6B
:101260004FF482725A60144B00229A60124B002293
:10127000DA60114B00221A610F4B00225A610E4BAB
:101280004FF400729A610C4B1022DA610A4B002273
:101290001A62094B00225A62074B00229A62064BDF
:1012A0000A22DA62044803F015FF0346002B01D03E
:1012B00000F036F900BF80BDDC030020003800409C
:1012C00080B586B000AF07F1080300221A605A60AB
:1012D0009A60DA603B4600221A605A601D4B4FF05C
:1012E00080421A601B4B3F225A601A4B00229A60C0
:1012F000184B4FF6FF72DA60164B00221A61154B3D
:1013000000229A61134804F0B1F90346002B01D082
:1013100000F006F94FF48053BB6007F1080319464B
:101320000C4804F097FB0346002B01D000F0F8F8BE
:1013300000233B6000237B603B461946054804F0D0
:1013400069FD0346002B01D000F0EAF800BF183712
:10135000BD4680BD3404002080B586B000AF07F1E3
:10136000080300221A605A609A60DA603B46002245
:101370001A605A601D4B1E4A1A601C4B4FF6FF1232
:101380005A601A4B00229A60184BC722DA60174B3A
:1013900000221A61154B00229A61144804F066F984
:1013A0000346002B01D000F0BBF84FF48053BB6024
:1013B00007F1080319460D4804F04CFB0346002BC7
:1013C00001D000F0ADF800233B6000237B603B467A
:1013D0001946064804F01EFD0346002B01D000F01C
:1013E0009FF800BF1837BD4680BD00BF7C040020B9
:1013F0000008004080B500AF114B124A1A60104B34
:101400004FF416525A600E4B00229A600C4B002289
:10141000DA600B4B00221A61094B0C225A61084B0F
:1014200000229A61064B0022DA61054804F062FD51
:101430000346002B01D000F073F800BF80BD00BF51
:10144000C40400200038014080B586B000AF07F129
:10145000080300221A605A609A60DA602C4B9B697C
:101460002B4A43F004039361294B9B6903F0040367
:101470007B607B68264B9B69254A43F00803936198
:10148000234B9B6903F008033B603B6800224FF449
:10149000C751204802F05DF80823BB600023FB60C1
:1014A00001233B6107F1080319461A4801F0B6FE13
:1014B0004FF4C753BB600123FB6000233B61022351
:1014C0007B6107F108031946124801F0A7FE0923C2
:1014D000BB60114BFB6001233B6107F10803194618
:1014E0000E4801F09BFE00220521062001F051FE6E
:1014F000062001F06AFE00220221092001F049FEC7
:10150000092001F062FE00BF1837BD4680BD00BF54
:10151000001002400008014000002110000C0140B2
:1015200080B400AF00BFBD4680BC704780B584B0BA
:1015300000AF0346FB71FFF7C3FCFB7903F01F0309
:10154000DBB21846FFF7F4FCFF20FFF7F1FC03467F
:10155000FB73FFF7C1FCFB7B18461037BD4680BD0F
:1015600080B582B000AF03460A46FB711346BB71DB
:10157000FFF7A6FCFB791F2B10D897F9073003F073
:101580001F035BB243F020035BB2DBB21846FFF7E8
:10159000CFFCBB791846FFF7CBFC13E0FB7918466C
:1015A000FFF7C6FCFB79E12B0CD0FB79E22B09D0CD
:1015B000FB79E32B06D0FB79FF2B03D0BB791846D0
:1015C000FFF7B6FCFFF788FC00BF0837BD4680BDBB
:1015D00090B583B000AF03463960FB711346BB7111
:1015E000FFF76EFCFB791846FFF7A2FC07E03C68AA
:1015F000631C3B60FF20FFF79BFC03462370BB7915
:101600005A1EBA71002BF2D1FFF766FC00BF0C37EF
:10161000BD4690BD80B582B000AF03463960FB7116
:101620001346BB71FFF74CFCFB791846FFF780FCB3
:1016300006E03B685A1C3A601B781846FFF778FCB6
:10164000BB795A1EBA71002BF3D1FFF745FC00BFDE
:101650000837BD4680BD80B500AF08210020FFF7E8
:101660007FFF3F210120FFF77BFF03210220FFF7CF
:1016700077FF03210320FFF773FF03210420FFF707
:101680006FFF02210520FFF76BFF0E210620FFF7F9
:1016900067FF00210720FFF763FF00211120FFF7FC
:1016A0005FFF00211220FFF75BFF00211320FFF7EF
:1016B00057FF00211420FFF753FF00211520FFF7EB
:1016C0004FFF00211620FFF74BFF73215020FFF73B
:1016D00047FF3F211C20FFF743FF00211D20FFF79C
:1016E0003FFF00F0D7F900F0CDF900F0DBF9FFF78C
:1016F000F3FB00BF80BD80B584B000AF0346FB7133
:101700000020FFF713FF0346FB73FB79022B04D184
:10171000FB7B43F00203FB7303E0FB7B23F002033C
:10172000FB73FB7B19460020FFF71AFF00BF103741
:10173000BD4680BD80B584B000AF0346FB7100207C
:10174000FFF7F4FE0346FB73FB7B23F00103FB73FF
:1017500097F9073003F001035AB297F90F3013439A
:101760005BB2FB73FB7B19460020FFF7F9FE00BF5D
:101770001037BD4680BD80B584B000AF0346FB7115
:101780000020FFF7D3FE0346FB73FB7B23F00C0323
:10179000FB73FA79FB7B1343DBB243F00C03FB735F
:1017A000FB7B19460020FFF7DBFE00BF1037BD466C
:1017B00080BD80B582B000AF0346FB71FB7919464E
:1017C0000520FFF7CDFE00BF0837BD4680BD80B5C0
:1017D00082B000AF03460A46FB711346BB71FB792A
:1017E0001B015AB297F9063003F00F035BB21343A3
:1017F0005BB2DBB219460420FFF7B2FE00BF083728
:10180000BD4680BD80B582B000AF0346FB71FB7959
:10181000023BDBB219460320FFF7A2FE00BF0837E8
:10182000BD4680BD80B584B000AF03463960FB7112
:10183000FB79062B0AD0062B36DC012B02DC002BB1
:1018400004DA31E0023B032B2ED823E00320FFF71C
:101850006DFE03460133FB73FB7B3A6813443B6028
:10186000FFF72EFBFB79134AD35C43F02003DBB276
:101870001846FFF75DFB3B685A1E3A601B78184616
:10188000FFF756FBFB7B5A1EFA73002BF3D1FFF7D1
:1018900023FB0AE0FB79074AD25C3B681B781946B8
:1018A0001046FFF75DFE00E000BF00BF1037BD46E9
:1018B00080BD00BF508F000880B584B000AF0346E4
:1018C000FB710620FFF732FE0346FB73FB7B23F020
:1018D0000603FB73FA7BFB791343FB73FB7B19460F
:1018E0000620FFF73DFE00BF1037BD4680BD80B526
:1018F00084B000AF0346FB710620FFF717FE0346D6
:10190000FB73FB7B23F02803FB73FA7BFB79134308
:10191000FB73FB7B19460620FFF722FE00BF103742
:10192000BD4680BD80B584B000AF0346FB710B4659
:10193000BB7113467B710220FFF7F8FD03465AB2D4
:10194000FB79012101FA03F35BB213435BB2DBB213
:1019500003F03F03FB73FB7B19460220FFF700FEF9
:10196000FB79194AD25C7B7903F03F03DBB219465D
:101970001046FFF7F5FD0120FFF7D8FD0346FB7386
:10198000BB79012B0AD1FB79012202FA03F35AB287
:1019900097F90F3013435BB2FB730BE0FB79012225
:1019A00002FA03F35BB2DB435AB297F90F301340EC
:1019B0005BB2FB73FB7B19460120FFF7D1FD00BF33
:1019C0001037BD4680BD00BF488F000880B584B089
:1019D00000AF0346FB710120FFF7A8FD0346FB7330
:1019E000FB79012202FA03F35AB297F90F3013433D
:1019F0005BB2FB73FB7B19460120FFF7B1FD00BF13
:101A00001037BD4680BD80B584B000AF0346FB7182
:101A10001D20FFF78BFD0346FB73FB7B23F00703C1
:101A2000FB73FA7BFB791343FB73FB7B19461D2089
:101A3000FFF796FD00BF1037BD4680BD80B500AFF3
:101A40000720FFF773FD0346184680BD80B500AF41
:101A50001720FFF76BFD034603F00303DBB21846C4
:101A600080BD80B582B000AF0520FFF75FFD034663
:101A7000FB71FB7919460520FFF772FD00BF08379F
:101A8000BD4680BD80B500AFFF21E120FFF768FDB6
:101A900000BF80BD80B500AFFF21E220FFF760FDF1
:101AA00000BF80BD80B582B000AF0720FFF73EFDCC
:101AB0000346FB71FB7943F07003FB71FB79194618
:101AC0000720FFF74DFD00BF0837BD4680BD80B53C
:101AD00082B000AF78600B46FB70FB781A467968DD
:101AE000A020FFF797FD00BF0837BD4680BD00006E
:101AF00080B584B000AF0346B9607A60FB73FB7BAE
:101B00000B4AD35C1846FFF711FD03461A467B6863
:101B10001A707B681B78002B06D07B681B781A46EE
:101B2000B9686120FFF754FD00BF1037BD4680BD86
:101B3000488F000880B582B000AFFFF77FFF0346F3
:101B4000FB71FFF783FF0346BB71FB795B10DBB2D0
:101B500003F007037B71FB7903F04003002B0DD0EA
:101B6000BB79012B06D07B79052B03D87B791846EE
:101B700000F0AAF840210720FFF7F2FCFB7903F000
:101B80002003002B06D020210720FFF7E9FC0120CD
:101B900000F086F8FB7903F01003002B0AD0102127
:101BA0000720FFF7DDFCFFF76DFFFFF75AFF00206E
:101BB00000F076F800BF0837BD4680BD90B585B00F
:101BC00000AF78600B46FB707B689B69FB60FB682D
:101BD000002B05D0FB78FC6800220021FF20A047E5
:101BE0007B68012283F820207B6893F820301A4616
:101BF0007B68023253F822307A68213210469847C7
:101C000000BF1437BD4690BD2DE9F04387B000AF4B
:101C100078600B46FB706B461E460023FB72202348
:101C2000013B7B612023DBB20022984691464FF0B6
:101C300000024FF000034FEAC90343EA58734FEA2A
:101C4000C8022023DBB200221C4615464FF00002DA
:101C50004FF00003EB0043EA5473E2002023073304
:101C6000DB08DB00ADEB030D6B4600333B617B68AB
:101C7000DB69FB6007F10B02FB7839691846FFF757
:101C800037FFFB68002B05D02022F878FC68012381
:101C90003969A047B54600BF1C37BD46BDE8F08393
:101CA00080B582B000AF0346FB71064B1B681B6812
:101CB000044A1268F9791046984700BF0837BD46B4
:101CC00080BD00BF0405002080B582B000AF034690
:101CD000FB71064B1B685B68044A1268F979104671
:101CE000984700BF0837BD4680BD00BF04050020EF
:101CF00080B582B000AF78607B6805331946062056
:101D0000FFF790FD7B68053319460020FFF78AFD39
:101D10000020FFF75BFE0020FFF70CFDFFF7C4F883
:101D2000FFF7B0FEFFF7B6FE8C20FFF739F900BFD2
:101D30000837BD4680BD80B582B000AF78607B6853
:101D4000053319460020FFF76DFD20231A460121B7
:101D50000020FFF7E7FD0120FFF7ECFCFFF7A4F8F8
:101D6000FFF790FEFFF796FE8C20FFF719F900BFF2
:101D70000837BD4680BD80B582B000AF78607B6813
:101D80001B781846FFF715FD7B685B781846FFF750
:101D9000AEFD0C20FFF7EFFC7B689B7A1846FFF73F
:101DA00031FD7B689A787B68DB7819461046FFF72F
:101DB0000EFD7B681B791846FFF77EFD0020FFF7BC
:101DC00022FE00BF0837BD4680BD80B582B000AF9F
:101DD0007860FFF769F80220FFF78DFCFFF762FEDD
:101DE0000120FFF785F800BF0837BD4680BD000021
:101DF00080B582B000AF78600B46FB70124B1B6859
:101E000093F82030012B19D10F4B1B68002283F867
:101E100020200D4B1B680C4A126892F820200232D9
:101E200053F82230084A1268213210469847FB784E
:101E300019467868FFF74BFE012300E0002318469F
:101E40000837BD4680BD00BF0405002080B584B0C2
:101E500000AFF860B9607A60FFF75DF81C4B1D4A6F
:101E60001A601B4B1B6821330B22F968184604F0DB
:101E700047F9174B1B68012283F82020144B1B687D
:101E8000BA689A61124B1B687A68DA61104B1B685A
:101E90001B690F4A12682132104698470C4B1B6889
:101EA0000B4A126892F82020023253F82230084A76
:101EB0001268213210469847054B1B685B69044A3B
:101EC000126821321046984700BF1037BD4680BDCA
:101ED000040500200C00002080B500AF024800F08F
:101EE000C1FF00BF80BD00BF5803002080B500AF18
:101EF000024800F053FC00BF80BD00BF5803002023
:101F000080B500AF024800F0F7FC00BF80BD00BF05
:101F10005803002080B584B000AF786064210C487D
:101F200000F016FD0346FB73FB7B002B08D108482D
:101F300000F008FE03469AB27B681A80012303E092
:101F4000FB7B002BEAD0002318461037BD4680BD2E
:101F50005803002080B485B000AF154B9B69144A2C
:101F600043F001039361124B9B6903F00103BB60D3
:101F7000BB680F4BDB690E4A43F08053D3610C4BB7
:101F8000DB6903F080537B607B680A4B5B68FB6016
:101F9000FB6823F0E063FB60FB6843F00073FB60C9
:101FA000044AFB68536000BF1437BD4680BC7047CD
:101FB000001002400000014080B588B000AF78609A
:101FC00007F1100300221A605A609A60DA607B6899
:101FD0001B68144A934221D1134B9B69124A43F464
:101FE00000739361104B9B6903F40073FB60FB6803
:101FF0000D4B9B690C4A43F0040393610A4B9B69A8
:1020000003F00403BB60BB6811233B6103237B61C6
:1020100007F110031946054801F000F900BF203709
:10202000BD4680BD00240140001002400008014070
:1020300080B588B000AF786007F1100300221A6005
:102040005A609A60DA607B681B68154A934223D114
:10205000144B9B69134A43F008039361114B9B692E
:1020600003F00803FB60FB68C0233B6112237B6124
:102070000323FB6107F1100319460B4801F0CEF86A
:10208000084BDB69074A43F40013D361054BDB6956
:1020900003F40013BB60BB6800BF2037BD4680BDA2
:1020A0000054004000100240000C014080B588B090
:1020B00000AF786007F1100300221A605A609A603E
:1020C000DA607B681B681C4A934231D11B4BDB6989
:1020D0001A4A43F48043D361184BDB6903F480430D
:1020E000FB60FB68154B9B69144A43F0080393613E
:1020F000124B9B6903F00803BB60BB684FF420439D
:102100003B6102237B610323FB6107F11003194646
:102110000B4801F083F84FF480433B6100237B615F
:102120000223BB6107F110031946054801F076F858
:1021300000BF2037BD4680BD00380040001002407F
:10214000000C014080B584B000AF78607B681B68EC
:10215000B3F1804F0CD1154BDB69144A43F00103F6
:10216000D361124BDB6903F00103FB60FB6818E0ED
:102170007B681B680E4A934213D10C4BDB690B4AF8
:1021800043F00403D361094BDB6903F00403BB6034
:10219000BB68002203211E2000F0FBFF1E2001F07F
:1021A00014F800BF1037BD4680BD00BF00100240CC
:1021B0000008004080B588B000AF786007F11003D8
:1021C00000221A605A609A60DA607B681B681C4AB9
:1021D000934231D11B4B9B691A4A43F4804393616C
:1021E000184B9B6903F48043FB60FB68154B9B69AC
:1021F000144A43F004039361124B9B6903F00403F8
:10220000BB60BB684FF400733B6102237B61032317
:10221000FB6107F1100319460B4800F0FFFF4FF474
:1022200080633B6100237B610023BB6107F11003E6
:102230001946054800F0F2FF00BF2037BD4680BDBB
:1022400000380140001002400008014080B400AF97
:1022500000BFBD4680BC704780B400AFFEE780B4CD
:1022600000AFFEE780B400AFFEE780B400AFFEE74A
:1022700080B400AF00BFBD4680BC704780B400AFE3
:1022800000BFBD4680BC704780B400AF00BFBD46F4
:1022900080BC704780B500AF00F068F900BF80BD1A
:1022A00080B500AF012001F06DF900BF80BD80B5A1
:1022B00000AF082001F066F900BF80BD80B500AF17
:1022C000024803F0BFFA00BF80BD00BF7C040020BD
:1022D00080B400AF01231846BD4680BC704780B56E
:1022E00082B000AF7860396003F0E0FE034616224A
:1022F0001A604FF0FF3318460837BD4680BD80B5E1
:1023000082B000AF78604FF0FF317868FFF7E7FFE9
:10231000FEE780B586B000AFF860B9607A60002350
:102320007B610AE0AFF300800146BB685A1CBA60CB
:10233000CAB21A707B6901337B617A697B689A4201
:10234000F0DB7B6818461837BD4680BD80B586B087
:1023500000AFF860B9607A6000237B6109E0BB6878
:102360005A1CBA601B781846AFF300807B690133B2
:102370007B617A697B689A42F1DB7B681846183783
:10238000BD4680BD80B483B000AF78604FF0FF33AE
:1023900018460C37BD4680BC704780B483B000AF90
:1023A000786039603B684FF400525A600023184649
:1023B0000C37BD4680BC704780B483B000AF7860F6
:1023C000012318460C37BD4680BC704780B485B0E9
:1023D00000AFF860B9607A60002318461437BD4634
:1023E00080BC704780B586B000AF7860144A154B4A
:1023F000D31A7B617B693B61134B1B68002B02D1B5
:10240000114B124A1A60104B1A687B6813443A69E0
:102410009A4207D203F04AFE03460C221A604FF09C
:10242000FF3309E0084B1B68FB60074B1A687B68A9
:102430001344054A1360FB6818461837BD4680BD33
:1024400000500020000400000805002020050020A6
:1024500080B400AF00BFBD4680BC704780B485B07B
:1024600000AFF860B9607A603B60FA68BB68D31A65
:10247000B9693A688A1A03FB02F27968BB68CB1A19
:1024800092FBF3F23B68134418461437BD4680BCF8
:1024900070470000002103E00B4B5B5843500431B0
:1024A0000A480B4B42189A42F6D30A4A02E000232C
:1024B00042F8043B084B9A42F9D3FFF7C9FF03F0F7
:1024C000FBFDFEF7DBFD7047549300080000002081
:1024D000140200201802002020050020FEE7000062
:1024E00080B500AF084B1B68074A43F01003136028
:1024F000032000F043FE002000F008F8FFF72AFD5B
:102500000023184680BD00BF0020024080B582B085
:1025100000AF7860124B1A68124B1B7819464FF4C3
:102520007A73B3FBF1F3B2FBF3F3184600F069FEE4
:102530000346002B01D001230EE07B680F2B0AD845
:10254000002279684FF0FF3000F023FE064A7B68D6
:102550001360002300E0012318460837BD4680BD04
:1025600038000020400000203C00002080B400AF74
:10257000054B1B781A46054B1B681344034A13602E
:1025800000BFBD4680BC7047400000200C05002005
:1025900080B400AF024B1B681846BD4680BC704734
:1025A0000C05002080B584B000AF7860FFF7F0FF25
:1025B000B8607B68FB60FB68B3F1FF3F05D00A4B56
:1025C0001B781A46FB681344FB6000BFFFF7E0FF6F
:1025D0000246BB68D31AFA689A42F7D800BF00BF18
:1025E0001037BD4680BD00BF4000002080B586B0DA
:1025F00000AF78600023FB7500233B610023BB60C4
:102600000023FB607B68002B01D10123BEE07B68C7
:102610009B68002B7B689B6A002B09D17B6800229A
:10262000DA627B68002283F824207868FFF7C4FC14
:10263000786800F0DDFB0346FB757B689B6A03F05E
:102640001003002B40F09980FB7D002B40F095801B
:102650007B689B6A23F4885323F0020343F0020251
:102660007B689A627B685A687B68DB691A437B687F
:102670001B7B5B001343BA681343BB607B689B689A
:10268000B3F5807F03D07B689B68012B02D14FF4A8
:10269000807300E000233A6913433B617B681B7D34
:1026A000012B19D17B681B7B002B09D17B689B69AF
:1026B000013B5A033B69134343F400633B610BE066
:1026C0007B689B6A43F020027B689A627B68DB6AC6
:1026D00043F001027B68DA627B681B685B6823F465
:1026E00069417B681B683A690A435A607B681B68CA
:1026F0009A68284B13407A681268B9680B43936054
:102700007B689B68B3F5807F03D07B689B68012B57
:1027100004D17B681B69013B1B05FB607B681B6860
:10272000DB6A23F470017B681B68FA680A43DA628B
:102730007B681B689A68184B1340BA689A420BD1A1
:102740007B680022DA627B689B6A23F0030343F014
:1027500001027B689A6218E07B689B6A23F012038F
:1027600043F010027B689A627B68DB6A43F00102E7
:102770007B68DA620123FB7507E07B689B6A43F0A4
:1027800010027B689A620123FB75FB7D184618379F
:10279000BD4680BDFDF7E1FFFE0E1FFF80B584B092
:1027A00000AF78600023FB737B6893F82430012B23
:1027B00001D1022398E07B68012283F82420786805
:1027C00000F0C4FA0346FB73FB7B002B40F08780CC
:1027D0007B689B6A23F4407323F0010343F4807207
:1027E0007B689A627B681B68414A934205D1414BE2
:1027F0005B6803F47023002B15D17B689B6A23F47C
:1028000080127B689A627B681B685B6803F4806354
:10281000002B26D07B689B6A23F4405343F48052FC
:102820007B689A621DE07B689B6A43F480127B6838
:102830009A627B681B682F4A934204D07B681B68AE
:102840002B4A93420DD12B4B5B6803F48063002B22
:1028500007D07B689B6A23F4405343F480527B6823
:102860009A627B689B6A03F48053002B06D07B68D6
:10287000DB6A23F006027B68DA6202E07B680022F2
:10288000DA627B68002283F824207B681B686FF083
:1028900002021A607B681B689B6803F46023B3F52F
:1028A000602F13D17B681B68114A934205D1114BED
:1028B0005B6803F47023002B08D17B681B689A685F
:1028C0007B681B6842F4A0029A600CE07B681B687E
:1028D0009A687B681B6842F480129A6003E07B6808
:1028E000002283F82420FB7B18461037BD4680BDAC
:1028F000002801400024014080B584B000AF78601A
:102900000023FB737B6893F82430012B01D1022351
:102910001AE07B68012283F82420786800F068FAC6
:102920000346FB73FB7B002B09D17B689B6A23F476
:10293000885323F0010343F001027B689A627B68AD
:10294000002283F82420FB7B18461037BD4680BD4B
:1029500090B587B000AF7860396000237B610023B9
:10296000FB6000233B61FFF713FE78617B681B6807
:102970009B6803F48073002B0BD07B689B6A43F049
:1029800020027B689A627B68002283F8242001235E
:10299000C8E07B681B685B6803F48073002B2AD156
:1029A0007B681B68DB6A03F47003002B23D11AE0F9
:1029B0003B68B3F1FF3F16D03B68002B07D0FFF711
:1029C000E7FD02467B69D31A3A689A420BD27B68CC
:1029D0009B6A43F004027B689A627B68002283F85A
:1029E000242003239EE07B681B681B6803F002031E
:1029F000002BDDD06CE04D4B1C68022002F0AAFADF
:102A00000346B4FBF3F27B681B681969484B0B4023
:102A1000002B18D17B681B68D968464B0B40002BF4
:102A200011D17B681B681969434B0B40002B08D1FF
:102A30007B681B68D968414B0B40002B01D11423E4
:102A400020E029231EE07B681B6819693A4B0B4084
:102A5000002B06D17B681B68D968384B0B40002BD4
:102A60000DD07B681B681969354B0B40002B08D1D2
:102A70007B681B68D968324B0B40002B01D1542373
:102A800000E0FC2302FB03F33B611DE03B68B3F174
:102A9000FF3F16D03B68002B07D0FFF779FD0246B9
:102AA0007B69D31A3A689A420BD27B689B6A43F0DF
:102AB00004027B689A627B68002283F82420032347
:102AC00030E0FB680133FB60FB683A699A42DDD86D
:102AD0007B681B686FF012021A607B689B6A43F484
:102AE00000727B689A627B681B689B6803F46023B2
:102AF000B3F5602F15D17B681B7B002B11D17B6850
:102B00009B6A23F480727B689A627B689B6A03F4F9
:102B10008053002B05D17B689B6A43F001027B68E0
:102B20009A62002318461C37BD4690BD380000202D
:102B30002449922424499200922449129224490063
:102B40004992240080B483B000AF78607B681B6832
:102B5000DB6C18460C37BD4680BC704780B485B02E
:102B600000AF786039600023FB730023BB607B6893
:102B700093F82430012B01D10223DCE07B68012291
:102B800083F824203B685B68062B1CD87B681B6895
:102B9000596B3B685A6813469B001344053B1F2240
:102BA00002FA03F3DB4319403B6818683B685A6834
:102BB00013469B001344053B00FA03F27B681B6835
:102BC0000A435A633CE03B685B680C2B1CD87B686B
:102BD0001B68196B3B685A6813469B001344233BE0
:102BE0001F2202FA03F3DB4319403B6818683B6875
:102BF0005A6813469B001344233B00FA03F27B6898
:102C00001B680A431A631BE07B681B68D96A3B6830
:102C10005A6813469B001344413B1F2202FA03F3F8
:102C2000DB4319403B6818683B685A6813469B00B1
:102C30001344413B00FA03F27B681B680A43DA62E3
:102C40003B681B68092B1CD97B681B68D9683B68EB
:102C50001A6813465B0013441E3B072202FA03F373
:102C6000DB4319403B6898683B681A6813465B0071
:102C700013441E3B00FA03F27B681B680A43DA60C8
:102C800019E07B681B6819693B681A6813465B008A
:102C90001344072202FA03F3DB4319403B689868A8
:102CA0003B681A6813465B00134400FA03F27B6822
:102CB0001B680A431A613B681B68102B03D03B68F2
:102CC0001B68112B32D17B681B681D4A934225D1AA
:102CD0007B681B689B6803F40003002B26D17B688C
:102CE0001B689A687B681B6842F400029A603B6824
:102CF0001B68102B1AD1134B1B68134AA2FB03232A
:102D00009A0C13469B0013445B00BB6002E0BB6857
:102D1000013BBB60BB68002BF9D107E07B689B6A75
:102D200043F020027B689A620123FB737B680022D8
:102D300083F82420FB7B18461437BD4680BC7047BF
:102D4000002401403800002083DE1B4380B584B09E
:102D500000AF78600023FB600023BB607B681B68CA
:102D60009B6803F00103012B39D07B681B689A68CC
:102D70007B681B6842F001029A601B4B1B681B4A70
:102D8000A2FB03239B0CBB6002E0BB68013BBB6062
:102D9000BB68002BF9D1FFF7FBFBF86018E0FFF7E9
:102DA000F7FB0246FB68D31A022B11D97B689B6A9A
:102DB00043F010027B689A627B68DB6A43F0010291
:102DC0007B68DA627B68002283F82420012307E015
:102DD0007B681B689B6803F00103012BDFD1002394
:102DE00018461037BD4680BD3800002083DE1B43E7
:102DF00080B584B000AF78600023FB607B681B68FF
:102E00009B6803F00103012B27D17B681B689A683C
:102E10007B681B6822F001029A60FFF7B9FBF8603B
:102E200014E0FFF7B5FB0246FB68D31A022B0DD95D
:102E30007B689B6A43F010027B689A627B68DB6A5E
:102E400043F001027B68DA62012307E07B681B68BC
:102E50009B6803F00103012BE3D0002318461037D1
:102E6000BD4680BD90B587B000AF78600023FB758C
:102E70000023FB607B6893F82430012B01D10223EF
:102E800086E07B68012283F824207868FFF7B0FF92
:102E90000346FB75FB7D002B75D17B689B6A23F491
:102EA000885323F0020343F002027B689A623A4B94
:102EB0001C68022002F04EF80346B4FBF3F35B00FB
:102EC000FB6002E0FB68013BFB60FB68002BF9D173
:102ED0007868FFF73BFF7B681B689A687B681B6814
:102EE00042F008029A60FFF753FB386114E0FFF7E5
:102EF0004FFB02463B69D31A0A2B0DD97B689B6AAC
:102F000023F0120343F010027B689A627B68002270
:102F100083F8242001233BE07B681B689B6803F057
:102F20000803002BE3D17B681B689A687B681B68E9
:102F300042F004029A60FFF72BFB386114E0FFF7C0
:102F400027FB02463B69D31A0A2B0DD97B689B6A83
:102F500023F0120343F010027B689A627B68002220
:102F600083F82420012313E07B681B689B6803F02F
:102F70000403002BE3D17B689B6A23F0030343F037
:102F800001027B689A627B68002283F82420FB7D23
:102F900018461C37BD4690BD3800002080B485B06F
:102FA00000AF78607B6803F00703FB600C4BDB68C5
:102FB000BB60BA684FF6FF031340BB60FB681A02A0
:102FC000BB68134343F0BF6343F40033BB60044A60
:102FD000BB68D36000BF1437BD4680BC704700BFDC
:102FE00000ED00E080B400AF044BDB681B0A03F087
:102FF00007031846BD4680BC704700BF00ED00E0E7
:1030000080B483B000AF0346FB7197F90730002B03
:103010000BDBFB7903F01F02064997F907305B09C8
:10302000012000FA02F241F8232000BF0C37BD4610
:1030300080BC704700E100E080B483B000AF03467D
:10304000FB7197F90730002B12DBFB7903F01F02AD
:103050000A4997F907305B09012000FA02F2203390
:1030600041F82320BFF34F8F00BFBFF36F8F00BF26
:1030700000BF0C37BD4680BC704700BF00E100E0D8
:1030800080B483B000AF03463960FB7197F9073015
:10309000002B0ADB3B68DAB20C4997F907301201C2
:1030A000D2B20B4483F800230AE03B68DAB2084945
:1030B000FB7903F00F03043B1201D2B20B441A76E2
:1030C00000BF0C37BD4680BC704700BF00E100E088
:1030D00000ED00E080B489B000AFF860B9607A60BC
:1030E000FB6803F00703FB61FB69C3F10703042BD3
:1030F00028BF0423BB61FB690433062B02D9FB699B
:10310000033B00E000237B614FF0FF32BB6902FA12
:1031100003F3DA43BB681A407B699A404FF0FF31F2
:103120007B6901FA03F3D9437B680B4013431846CC
:103130002437BD4680BC704780B582B000AF786050
:103140007B68013BB3F1807F01D301230FE00A4A82
:103150007B68013B53600F214FF0FF30FFF790FF7A
:10316000054B00229A60044B07221A600023184680
:103170000837BD4680BD00BF10E000E080B582B0DA
:1031800000AF78607868FFF709FF00BF0837BD46D9
:1031900080BD80B586B000AF0346B9607A60FB732E
:1031A00000237B61FFF71EFF78617A68B968786950
:1031B000FFF790FF024697F90F3011461846FFF7C8
:1031C0005FFF00BF1837BD4680BD80B582B000AF3D
:1031D0000346FB7197F907301846FFF711FF00BF50
:1031E0000837BD4680BD80B582B000AF0346FB7195
:1031F00097F907301846FFF71FFF00BF0837BD4695
:1032000080BD80B582B000AF78607868FFF794FF2A
:10321000034618460837BD4680BD000080B48BB019
:1032200000AF7860396000237B6200233B6269E174
:1032300001227B6A02FA03F3FB613B681B68FA69AF
:103240001340BB61BA69FB699A4240F058813B6800
:103250005B689A4A93425ED0984A934275D8984ADE
:10326000934258D0964A93426FD8964A934252D08E
:10327000944A934269D8944A93424CD0924A9342DA
:1032800063D8924A934246D0904A93425DD8122B1B
:103290002AD8122B59D801A252F823F0173300086C
:1032A000F132000803330008453300084B330008AF
:1032B0004B3300084B3300084B3300084B330008F6
:1032C0004B3300084B3300084B3300084B330008E6
:1032D0004B3300084B3300084B3300084B330008D6
:1032E000F93200080D330008794A934213D02CE0DC
:1032F0003B68DB683B6229E03B68DB6804333B6288
:1033000024E03B68DB6808333B621FE03B68DB6816
:103310000C333B621AE03B689B68002B02D104230C
:103320003B6213E03B689B68012B05D108233B629D
:103330007B68FA691A6109E008233B627B68FA69D5
:103340005A6103E000233B6200E000BFBB69FF2B32
:1033500001D87B6801E07B6804337B61BB69FF2B8C
:1033600002D87B6A9B0002E07B6A083B9B003B61C2
:103370007B691A680F213B6901FA03F3DB431A40AA
:10338000396A3B6901FA03F31A437B691A603B68A7
:103390005B6803F08053002B00F0B1804D4B9B69BC
:1033A0004C4A43F0010393614A4B9B6903F00103CC
:1033B000BB60BB68484A7B6A9B08023352F82330E3
:1033C000FB607B6A03F003039B000F2202FA03F306
:1033D000DB43FA681340FB607B68404A934213D09A
:1033E0007B683F4A93420DD07B683E4A934207D0A8
:1033F0007B683D4A934201D1032306E0042304E0A5
:10340000022302E0012300E000237A6A02F00302B3
:1034100092009340FA681343FB602F497B6A9B0834
:103420000233FA6841F823203B685B6803F4803379
:10343000002B06D02D4B1A682C49BB6913430B6037
:1034400006E02A4B1A68BB69DB43284913400B602E
:103450003B685B6803F40033002B06D0234B5A68AB
:103460002249BB6913434B6006E0204B5A68BB6995
:10347000DB431E4913404B603B685B6803F48013D9
:10348000002B06D0194B9A681849BB6913438B600F
:1034900006E0164B9A68BB69DB43144913408B6006
:1034A0003B685B6803F40013002B21D00F4BDA68F4
:1034B0000E49BB691343CB6021E000BF000032100E
:1034C0000000311000002210000021100000121036
:1034D00000001110001002400000014000080140EF
:1034E000000C0140001001400014014000040140A4
:1034F0000B4BDA68BB69DB4309491340CB607B6A3D
:1035000001337B623B681A687B6A22FA03F3002B63
:103510007FF48EAE00BF00BF2C37BD4680BC704725
:103520000004014080B485B000AF78600B467B801A
:103530007B689A687B881340002B02D00123FB73C1
:1035400001E00023FB73FB7B18461437BD4680BCAB
:10355000704780B483B000AF78600B467B80134621
:103560007B707B78002B03D07A887B681A6103E03C
:103570007B881A047B681A6100BF0C37BD4680BC8B
:103580007047000080B582B000AF0346FB80084B57
:103590005A69FB881340002B06D0054AFB8853610B
:1035A000FB881846FDF760FC00BF0837BD4680BDAC
:1035B0000004014080B584B000AF78607B68002BC8
:1035C00001D101232BE17B6893F83D30DBB2002B66
:1035D00006D17B68002283F83C207868FEF728FD3E
:1035E0007B68242283F83D207B681B681A687B680F
:1035F0001B6822F001021A607B681B681A687B68EE
:103600001B6842F400421A607B681B681A687B687A
:103610001B6822F400421A6001F0A0FBF8607B688E
:103620005B68814A934207D8FB68804A934294BF03
:1036300001230023DBB206E0FB687D4A934294BF7E
:1036400001230023DBB2002B01D00123E7E0FB685C
:10365000784AA2FB03239B0CBB607B681B685B68FA
:1036600023F03F017B681B68BA680A435A607B6895
:103670001B681B6A23F03F017B685B686A4A9342C0
:1036800002D8BB68013309E0BB684FF4967202FBB5
:1036900003F3694AA2FB03239B0901337A6812688A
:1036A0000B4313627B681B68DB6923F44F4222F0F3
:1036B000FF027B685B685C498B4219D8FB68591E26
:1036C0007B685B685B00B1FBF3F3591C40F6FC734D
:1036D0000B40002B0AD0FB68591E7B685B685B00BF
:1036E000B1FBF3F30133C3F30B0351E004234FE0C9
:1036F0007B689B68002B11D1FB68581E7B6859685A
:103700000B465B000B44B0FBF3F30133C3F30B0335
:10371000002B0CBF01230023DBB212E0FB68581E14
:103720007B6859680B469B000B4499000B44B0FB27
:10373000F3F30133C3F30B03002B0CBF012300236E
:10374000DBB2002B01D0012322E07B689B68002BB9
:103750000ED1FB68581E7B6859680B465B000B4412
:10376000B0FBF3F30133C3F30B0343F400430FE067
:10377000FB68581E7B6859680B469B000B449900F8
:103780000B44B0FBF3F30133C3F30B0343F44043A7
:10379000796809681343CB617B681B681B6823F059
:1037A000C0017B68DA697B681B6A1A437B681B6807
:1037B0000A431A607B681B689B6823F4034323F069
:1037C000FF037A6811697A68D26811437A681268CF
:1037D0000B4393607B681B68DB6823F0FF017B6809
:1037E0005A697B689B691A437B681B680A43DA60E5
:1037F0007B681B681A687B681B6842F001021A60CC
:103800007B6800221A647B68202283F83D207B6855
:1038100000221A637B68002283F83E2000231846AA
:103820001037BD4680BD00BFA08601007F841E000A
:10383000FF083D0083DE1B43D34D621080B588B086
:1038400002AFF860084611461A4603467B810B46D4
:103850003B811346FB80FEF79BFE7861FB6893F883
:103860003D30DBB2202B40F0D9807B6900931923D7
:1038700001226D49F86800F0C1FC0346002B01D01D
:103880000223CCE0FB6893F83C30012B01D10223EA
:10389000C5E0FB68012283F83C20FB681B681B68BD
:1038A00003F00103012B07D0FB681B681A68FB6853
:1038B0001B6842F001021A60FB681B681A68FB680B
:1038C0001B6822F400621A60FB68212283F83D2005
:1038D000FB68402283F83E20FB6800221A64FB68E4
:1038E0003A6A5A62FB68BA8C5A85FB685B8D9AB259
:1038F000FB681A85FB684D4ADA62F8883A8979894B
:103900007B690193BB6A00930346F86800F0F8FAFC
:103910000346002B52D0012381E07A69B96AF86826
:1039200000F042FD0346002B0DD0FB681B6C042BFE
:1039300007D1FB681B681A68FB681B6842F40072B9
:103940001A6001236BE0FB685B6A1A78FB681B68EE
:103950001A61FB685B6A5A1CFB685A62FB681B8D24
:10396000013B9AB2FB681A85FB685B8D9BB2013BF9
:103970009AB2FB685A85FB681B685B6903F0040315
:10398000042B1BD1FB681B8D002B17D0FB685B6AD7
:103990001A78FB681B681A61FB685B6A5A1CFB6833
:1039A0005A62FB681B8D013B9AB2FB681A85FB6863
:1039B0005B8D9BB2013B9AB2FB685A85FB681B8DFD
:1039C000002BAAD17A69B96AF86800F02EFD034687
:1039D000002B0DD0FB681B6C042B07D1FB681B6808
:1039E0001A68FB681B6842F400721A60012316E033
:1039F000FB681B681A68FB681B6842F400721A6057
:103A0000FB68202283F83D20FB68002283F83E20DB
:103A1000FB68002283F83C20002300E002231846C4
:103A20001837BD4680BD00BF020010000000FFFF38
:103A300080B58CB002AFF860084611461A460346BE
:103A40007B810B463B811346FB8000233B62FEF7E4
:103A50009FFD7862FB6893F83D30DBB2202B40F08D
:103A600044827B6A0093192301228249F86800F09E
:103A7000C5FB0346002B01D0022337E2FB6893F815
:103A80003C30012B01D1022330E2FB68012283F894
:103A90003C20FB681B681B6803F00103012B07D067
:103AA000FB681B681A68FB681B6842F001021A6019
:103AB000FB681B681A68FB681B6822F400621A60C6
:103AC000FB68222283F83D20FB68402283F83E20D9
:103AD000FB6800221A64FB683A6B5A62FB68BA8E74
:103AE0005A85FB685B8D9AB2FB681A85FB68624A4F
:103AF000DA62F8883A8979897B6A0193BB6B009313
:103B00000346F86800F092FA0346002B01D0012327
:103B1000ECE1FB681B8D002B13D10023FB61FB68DC
:103B20001B685B69FB61FB681B689B69FB61FB6948
:103B3000FB681B681A68FB681B6842F400721A6015
:103B4000C0E1FB681B8D012B1ED1FB681B681A6846
:103B5000FB681B6822F480621A6072B600BF002303
:103B6000BB61FB681B685B69BB61FB681B689B6989
:103B7000BB61BB69FB681B681A68FB681B6842F481
:103B800000721A6062B635E0FB681B8D022B1ED1F5
:103B9000FB681B681A68FB681B6842F400621A60C5
:103BA00072B600BF00237B61FB681B685B697B61A9
:103BB000FB681B689B697B617B69FB681B681A68F3
:103BC000FB681B6822F480621A6062B612E0FB6830
:103BD0001B681A68FB681B6842F480621A60002345
:103BE0003B61FB681B685B693B61FB681B689B6909
:103BF0003B613B6966E1FB681B8D032B00F21F8173
:103C0000FB681B8D012B23D17A6AB96BF86800F031
:103C10004DFC0346002B01D0012367E1FB681B68C4
:103C20001A69FB685B6AD2B21A70FB685B6A5A1C3D
:103C3000FB685A62FB681B8D013B9AB2FB681A85D0
:103C4000FB685B8D9BB2013B9AB2FB685A8539E1F8
:103C5000FB681B8D022B52D17B6A0093BB6B002249
:103C60000649F86800F0CAFA0346002B08D0012381
:103C70003CE100BF020010000000FFFF0400010053
:103C800072B600BFFB681B681A68FB681B6842F4C9
:103C900000721A60FB681B681A69FB685B6AD2B223
:103CA0001A70FB685B6A5A1CFB685A62FB681B8DC2
:103CB000013B9AB2FB681A85FB685B8D9BB2013BA6
:103CC0009AB2FB685A8562B600BFFB681B681A6926
:103CD000FB685B6AD2B21A70FB685B6A5A1CFB68AD
:103CE0005A62FB681B8D013B9AB2FB681A85FB6820
:103CF0005B8D9BB2013B9AB2FB685A85E2E07B6A1E
:103D00000093BB6B00227B49F86800F077FA03460A
:103D1000002B01D00123E9E0FB681B681A68FB68EF
:103D20001B6822F480621A6072B600BFFB681B68D1
:103D30001A69FB685B6AD2B21A70FB685B6A5A1C2C
:103D4000FB685A62FB681B8D013B9AB2FB681A85BF
:103D5000FB685B8D9BB2013B9AB2FB685A85664B50
:103D60001B68DB08654AA2FB03231A0A13469B0063
:103D70001344DA00D31A3B623B6A013B3B623B6A65
:103D8000002B18D1FB6800221A63FB68202283F8FD
:103D90003D20FB68002283F83E20FB681B6C43F04B
:103DA0002002FB681A6462B600BFFB68002283F839
:103DB0003C2001239AE0FB681B685B6903F0040365
:103DC000042BD9D1FB681B681A68FB681B6842F496
:103DD00000721A60FB681B681A69FB685B6AD2B2E2
:103DE0001A70FB685B6A5A1CFB685A62FB681B8D81
:103DF000013B9AB2FB681A85FB685B8D9BB2013B65
:103E00009AB2FB685A8562B600BFFB681B681A69E4
:103E1000FB685B6AD2B21A70FB685B6A5A1CFB686B
:103E20005A62FB681B8D013B9AB2FB681A85FB68DE
:103E30005B8D9BB2013B9AB2FB685A8542E07A6A7D
:103E4000B96BF86800F032FB0346002B01D0012368
:103E50004CE0FB681B681A69FB685B6AD2B21A7097
:103E6000FB685B6A5A1CFB685A62FB681B8D013B4E
:103E70009AB2FB681A85FB685B8D9BB2013B9AB2D4
:103E8000FB685A85FB681B685B6903F00403042B1D
:103E900018D1FB681B681A69FB685B6AD2B21A709A
:103EA000FB685B6A5A1CFB685A62FB681B8D013B0E
:103EB0009AB2FB681A85FB685B8D9BB2013B9AB294
:103EC000FB685A85FB681B8D002B7FF494AEFB6862
:103ED000202283F83D20FB68002283F83E20FB6807
:103EE000002283F83C20002300E0022318462837F4
:103EF000BD4680BD040001003800002089B5F814DB
:103F000080B588B002AFF860084611461A460346ED
:103F10007B810B463B811346FB80FB681B681A685C
:103F2000FB681B6842F480721A607B6A00933B6AEC
:103F300000224FF00111F86800F060F90346002BF1
:103F40000DD0FB681B681B6803F48073B3F5807F9A
:103F500003D1FB684FF400721A6403235FE07B898E
:103F6000DBB21A46FB681B6802F0FE021A617B6A2C
:103F70003A6A2D49F86800F098F90346002B01D001
:103F800001234CE000237B61FB681B685B697B615C
:103F9000FB681B689B697B617B697A6A396AF86890
:103FA00000F002FA0346002B0DD0FB681B6C042BBB
:103FB00007D1FB681B681A68FB681B6842F4007233
:103FC0001A6001232BE0FB88012B05D13B89DAB273
:103FD000FB681B681A6121E03B891B0A9BB2DAB2BD
:103FE000FB681B681A617A6A396AF86800F0DCF9C4
:103FF0000346002B0DD0FB681B6C042B07D1FB681C
:104000001B681A68FB681B6842F400721A6001237F
:1040100005E03B89DAB2FB681B681A610023184689
:104020001837BD4680BD00BF0200010080B588B0D2
:1040300002AFF860084611461A4603467B810B46DC
:104040003B811346FB80FB681B681A68FB681B6892
:1040500042F480621A60FB681B681A68FB681B6880
:1040600042F480721A607B6A00933B6A00224FF030
:104070000111F86800F0C2F80346002B0DD0FB6870
:104080001B681B6803F48073B3F5807F03D1FB6862
:104090004FF400721A640323AAE07B89DBB21A464C
:1040A000FB681B6802F0FE021A617B6A3A6A524999
:1040B000F86800F0FAF80346002B01D0012397E0DE
:1040C00000237B61FB681B685B697B61FB681B6885
:1040D0009B697B617B697A6A396AF86800F064F9E8
:1040E0000346002B0DD0FB681B6C042B07D1FB682B
:1040F0001B681A68FB681B6842F400721A6001238F
:1041000076E0FB88012B05D13B89DAB2FB681B689E
:104110001A6121E03B891B0A9BB2DAB2FB681B687B
:104120001A617A6A396AF86800F03EF90346002B92
:104130000DD0FB681B6C042B07D1FB681B681A6849
:10414000FB681B6842F400721A60012350E03B894F
:10415000DAB2FB681B681A617A6A396AF86800F09B
:1041600023F90346002B0DD0FB681B6C042B07D1F1
:10417000FB681B681A68FB681B6842F400721A60CF
:10418000012335E0FB681B681A68FB681B6842F472
:1041900080721A607B6A00933B6A00224FF0011123
:1041A000F86800F02BF80346002B0DD0FB681B6865
:1041B0001B6803F48073B3F5807F03D1FB684FF471
:1041C00000721A64032313E07B89DBB243F001031E
:1041D000DAB2FB681B681A617B6A3A6A0649F868BA
:1041E00000F063F80346002B01D0012300E0002318
:1041F00018461837BD4680BD0200010080B584B066
:1042000000AFF860B9603B601346FB7125E03B6886
:10421000B3F1FF3F21D0FEF7BBF90246BB69D31AC9
:104220003A689A4202D33B68002B16D1FB68002201
:104230001A63FB68202283F83D20FB68002283F884
:104240003E20FB681B6C43F02002FB681A64FB688D
:10425000002283F83C20012323E0BB681B0CDBB267
:10426000012B0DD1FB681B685B69DA43BB68134007
:104270009BB2002B0CBF01230023DBB21A460CE0DB
:10428000FB681B689B69DA43BB6813409BB2002B39
:104290000CBF01230023DBB21A46FB799A42B6D049
:1042A000002318461037BD4680BD80B584B000AFEE
:1042B000F860B9607A603B6051E0FB681B685B693D
:1042C00003F48063B3F5806F23D1FB681B681A6821
:1042D000FB681B6842F400721A60FB681B686FF48D
:1042E00080625A61FB6800221A63FB68202283F80F
:1042F0003D20FB68002283F83E20FB681B6C43F0E6
:104300000402FB681A64FB68002283F83C20012346
:1043100046E07B68B3F1FF3F21D0FEF739F9024652
:104320003B68D31A7A689A4202D37B68002B16D175
:10433000FB6800221A63FB68202283F83D20FB689B
:10434000002283F83E20FB681B6C43F02002FB68D0
:104350001A64FB68002283F83C20012320E0BB683C
:104360001B0CDBB2012B0CD1FB681B685B69DA43C9
:10437000BB6813409BB2002B14BF01230023DBB2A8
:104380000BE0FB681B689B69DA43BB6813409BB278
:10439000002B14BF01230023DBB2002B8DD100239F
:1043A00018461037BD4680BD80B584B000AFF860B8
:1043B000B9607A602DE0F86800F0CEF80346002B73
:1043C00001D001232DE0BB68B3F1FF3F21D0FEF700
:1043D000DFF802467B68D31ABA689A4202D3BB68F8
:1043E000002B16D1FB6800221A63FB68202283F899
:1043F0003D20FB68002283F83E20FB681B6C43F0E5
:104400002002FB681A64FB68002283F83C20012329
:1044100007E0FB681B685B6903F08003802BCAD14F
:10442000002318461037BD4680BD80B584B000AF6C
:10443000F860B9607A602DE0F86800F08DF8034606
:10444000002B01D001232DE0BB68B3F1FF3F21D049
:10445000FEF79EF802467B68D31ABA689A4202D3E6
:10446000BB68002B16D1FB6800221A63FB68202270
:1044700083F83D20FB68002283F83E20FB681B6C1C
:1044800043F02002FB681A64FB68002283F83C209A
:10449000012307E0FB681B685B6903F00403042B3E
:1044A000CAD1002318461037BD4680BD80B584B000
:1044B00000AFF860B9607A6042E0FB681B685B6936
:1044C00003F01003102B19D1FB681B686FF010026A
:1044D0005A61FB6800221A63FB68202283F83D20A2
:1044E000FB68002283F83E20FB681A6CFB681A64A4
:1044F000FB68002283F83C20012329E0FEF748F8FE
:1045000002467B68D31ABA689A4202D3BB68002B72
:1045100016D1FB6800221A63FB68202283F83D2035
:10452000FB68002283F83E20FB681B6C43F02002EE
:10453000FB681A64FB68002283F83C20012307E033
:10454000FB681B685B6903F04003402BB5D1002377
:1045500018461037BD4680BD80B483B000AF786088
:104560007B681B685B6903F48063B3F5806F1BD1C4
:104570007B681B686FF480625A617B6800221A6353
:104580007B68202283F83D207B68002283F83E2050
:104590007B681B6C43F004027B681A647B68002212
:1045A00083F83C20012300E0002318460C37BD4669
:1045B00080BC704780B586B000AF78607B68002B08
:1045C00001D1012372E27B681B6803F00103002B19
:1045D00000F08780924B5B6803F00C03042B0CD037
:1045E0008F4B5B6803F00C03082B12D18C4B5B687C
:1045F00003F48033B3F5803F0BD1894B1B6803F480
:104600000033002B6CD07B685B68002B68D10123E2
:104610004CE27B685B68B3F5803F06D1804B1B683A
:104620007F4A43F4803313602EE07B685B68002B85
:104630000CD17B4B1B687A4A23F480331360784B90
:104640001B68774A23F4802313601DE07B685B6856
:10465000B3F5A02F0CD1724B1B68714A43F4802331
:1046600013606F4B1B686E4A43F4803313600BE09A
:104670006B4B1B686A4A23F480331360684B1B68DA
:10468000674A23F4802313607B685B68002B13D098
:10469000FDF77EFF386108E0FDF77AFF02463B69CF
:1046A000D31A642B01D9032300E25D4B1B6803F48A
:1046B0000033002BF0D014E0FDF76AFF386108E00A
:1046C000FDF766FF02463B69D31A642B01D9032329
:1046D000ECE1534B1B6803F40033002BF0D100E0F6
:1046E00000BF7B681B6803F00203002B63D04C4BB8
:1046F0005B6803F00C03002B0BD0494B5B6803F0A5
:104700000C03082B1CD1464B5B6803F48033002B51
:1047100016D1434B1B6803F00203002B05D07B68C6
:104720001B69012B01D00123C0E13D4B1B6823F025
:10473000F8027B685B69DB00394913430B603AE0A0
:104740007B681B69002B20D0364B01221A60FDF7D5
:104750001FFF386108E0FDF71BFF02463B69D31AD3
:10476000022B01D90323A1E12D4B1B6803F00203A7
:10477000002BF0D02A4B1B6823F0F8027B685B69A2
:10478000DB00274913430B6015E0264B00221A601B
:10479000FDF7FEFE386108E0FDF7FAFE02463B69D0
:1047A000D31A022B01D9032380E11D4B1B6803F0B0
:1047B0000203002BF0D17B681B6803F00803002B79
:1047C0003AD07B689B69002B19D0174B01221A60E5
:1047D000FDF7DEFE386108E0FDF7DAFE02463B69D0
:1047E000D31A022B01D9032360E10D4B5B6A03F05E
:1047F0000203002BF0D0012000F0D8FA1CE00A4B95
:1048000000221A60FDF7C4FE38610FE0FDF7C0FE1C
:1048100002463B69D31A022B08D9032346E100BFA5
:10482000001002400000424280044242924B5B6A08
:1048300003F00203002BE9D17B681B6803F004033B
:10484000002B00F0A6800023FB758B4BDB6903F087
:104850008053002B0DD1884BDB69874A43F080538E
:10486000D361854BDB6903F08053BB60BB680123D8
:10487000FB75824B1B6803F48073002B18D17F4BB0
:104880001B687E4A43F480731360FDF781FE386134
:1048900008E0FDF77DFE02463B69D31A642B01D97F
:1048A000032303E1754B1B6803F48073002BF0D0E6
:1048B0007B68DB68012B06D16F4B1B6A6E4A43F0A5
:1048C000010313622DE07B68DB68002B0CD16A4B7F
:1048D0001B6A694A23F001031362674B1B6A664A2D
:1048E00023F0040313621CE07B68DB68052B0CD10A
:1048F000614B1B6A604A43F0040313625E4B1B6A00
:104900005D4A43F0010313620BE05B4B1B6A5A4A9A
:1049100023F001031362584B1B6A574A23F0040328
:1049200013627B68DB68002B15D0FDF731FE386120
:104930000AE0FDF72DFE02463B69D31A41F28832A8
:10494000934201D90323B1E04B4B1B6A03F00203EE
:10495000002BEED014E0FDF71BFE38610AE0FDF7F6
:1049600017FE02463B69D31A41F28832934201D9BD
:1049700003239BE0404B1B6A03F00203002BEED1A4
:10498000FB7D012B05D13C4BDB693B4A23F0805377
:10499000D3617B68DB69002B00F08780364B5B6856
:1049A00003F00C03082B61D07B68DB69022B46D136
:1049B000334B00221A60FDF7EBFD386108E0FDF78C
:1049C000E7FD02463B69D31A022B01D903236DE0B0
:1049D000294B1B6803F00073002BF0D17B681B6A26
:1049E000B3F5803F08D1244B5B6823F400327B6829
:1049F0009B68214913434B601F4B5B6823F474127F
:104A00007B68196A7B685B6A0B431B4913434B60E5
:104A10001B4B01221A60FDF7BBFD386108E0FDF772
:104A2000B7FD02463B69D31A022B01D903233DE0AF
:104A3000114B1B6803F00073002BF0D035E0104BD6
:104A400000221A60FDF7A4FD386108E0FDF7A0FD23
:104A500002463B69D31A022B01D9032326E0064BF9
:104A60001B6803F00073002BF0D11EE07B68DB694C
:104A7000012B07D1012319E0001002400070004013
:104A8000600042420B4B5B68FB60FB6803F48032C2
:104A90007B681B6A9A4206D1FB6803F470127B683C
:104AA0005B6A9A4201D0012300E0002318461837C0
:104AB000BD4680BD0010024080B584B000AF786074
:104AC00039607B68002B01D10123D0E06A4B1B6861
:104AD00003F007033A689A4210D9674B1B6823F02A
:104AE000070265493B6813430B60634B1B6803F087
:104AF00007033A689A4201D00123B8E07B681B683B
:104B000003F00203002B20D07B681B6803F0040332
:104B1000002B05D0594B5B68584A43F4E06353605F
:104B20007B681B6803F00803002B05D0534B5B68C0
:104B3000524A43F460535360504B5B6823F0F002D9
:104B40007B689B684D4913434B607B681B6803F08F
:104B50000103002B40D07B685B68012B07D1474BDA
:104B60001B6803F40033002B15D101237FE07B6821
:104B70005B68022B07D1414B1B6803F00073002BCD
:104B800009D1012373E03D4B1B6803F00203002BA6
:104B900001D101236BE0394B5B6823F003027B6892
:104BA0005B68364913434B60FDF7F2FCF8600AE09E
:104BB000FDF7EEFC0246FB68D31A41F288329342BD
:104BC00001D9032353E02D4B5B6803F00C027B6893
:104BD0005B689B009A42EBD1274B1B6803F00703ED
:104BE0003A689A4210D2244B1B6823F007022249EC
:104BF0003B6813430B60204B1B6803F007033A68C4
:104C00009A4201D0012332E07B681B6803F0040361
:104C1000002B08D0194B5B6823F4E0627B68DB68EB
:104C2000164913434B607B681B6803F00803002B95
:104C300009D0124B5B6823F460527B681B69DB0070
:104C40000E4913434B6000F021F802460B4B5B68A2
:104C50001B0903F00F030A49CB5C22FA03F3094A4C
:104C60001360094B1B681846FDF750FC00231846DB
:104C70001037BD4680BD00BF00200240001002403A
:104C8000588F0008380000203C00002090B48AB003
:104C900000AF294B3C1D0FCB84E80F0040F20123ED
:104CA0003B800023FB610023BB6100237B62002368
:104CB0007B6100233B62214B5B68FB61FB6903F076
:104CC0000C03042B02D0082B03D02BE01C4B3B62BF
:104CD0002BE0FB699B0C03F00F0328333B4413F8D4
:104CE000243C7B61FB6903F48033002B12D0134B0F
:104CF0005B685B0C03F0010328333B4413F8283C4A
:104D0000BB617B690E4A03FB02F2BB69B2FBF3F3A2
:104D10007B6204E07B690B4A02FB03F37B627B6AE4
:104D20003B6202E0064B3B6200BF3B6A18462837F5
:104D3000BD4690BC704700BF288F0008001002409D
:104D400000127A0000093D0080B400AF024B1B68DE
:104D50001846BD4680BC70473800002080B500AFC3
:104D6000FFF7F2FF0246054B5B681B0A03F00703DF
:104D70000349CB5C22FA03F3184680BD00100240C1
:104D8000688F000880B500AFFFF7DEFF0246054BD5
:104D90005B68DB0A03F007030349CB5C22FA03F3E9
:104DA000184680BD00100240688F000880B485B0AE
:104DB00000AF78600A4B1B680A4AA2FB03235B0A18
:104DC0007A6802FB03F3FB6000BFFB685A1EFA60BF
:104DD000002BF9D100BF00BF1437BD4680BC70471F
:104DE00038000020D34D621080B586B000AF7860E7
:104DF00000233B610023FB607B681B6803F0010319
:104E0000002B7DD00023FB754F4BDB6903F08053F3
:104E1000002B0DD14C4BDB694B4A43F08053D361DF
:104E2000494BDB6903F08053BB60BB680123FB7512
:104E3000464B1B6803F48073002B18D1434B1B684F
:104E4000424A43F480731360FDF7A2FB386108E027
:104E5000FDF79EFB02463B69D31A642B01D903235D
:104E60006DE03A4B1B6803F48073002BF0D0364B97
:104E70001B6A03F44073FB60FB68002B2ED07B6839
:104E80005B6803F44073FA689A4227D02E4B1B6A82
:104E900023F44073FB602E4B01221A602C4B00223E
:104EA0001A60294AFB681362FB6803F00103002BB8
:104EB00014D0FDF76DFB38610AE0FDF769FB02468F
:104EC0003B69D31A41F28832934201D9032336E079
:104ED0001D4B1B6A03F00203002BEED01A4B1B6A1A
:104EE00023F440727B685B68174913430B62FB7DB8
:104EF000012B05D1144BDB69134A23F08053D36196
:104F00007B681B6803F00203002B08D00E4B5B6824
:104F100023F440427B689B680B4913434B607B68DA
:104F20001B6803F01003002B08D0074B5B6823F4C9
:104F300080027B68DB68044913434B6000231846FA
:104F40001837BD4680BD00BF001002400070004011
:104F50004004424290B58DB000AF7860584B07F1E5
:104F60000C040FCB84E80F0040F201233B810023A7
:104F70007B620023FB6200233B620023FB61002372
:104F8000BB627B68102B0AD07B68102B00F28E80EE
:104F90007B68012B49D07B68022B79D086E0494B96
:104FA0005B68FB61474B1B6803F08073002B7FD06D
:104FB000FB699B0C03F00F0330333B4413F8243C94
:104FC0003B62FB6903F48033002B17D03D4B5B68D9
:104FD0005B0C03F0010330333B4413F8283C7B6245
:104FE000FB6903F48033002B0DD0374A7B6AB2FB98
:104FF000F3F23B6A02FB03F3FB6204E03B6A334AD1
:1050000002FB03F3FB622F4B5B6803F48003B3F5F1
:10501000800F02D1FB6ABB624AE0FB6A5B002C4A4C
:10502000A2FB03235B08BB6242E0264B1B6AFB61C9
:10503000FB6903F44073B3F5807F08D1FB6903F08B
:105040000203002B03D04FF40043BB621FE0FB6957
:1050500003F44073B3F5007F09D11A4B5B6A03F088
:105060000203002B03D049F64043BB620FE0FB690B
:1050700003F44073B3F5407F1CD1124B1B6803F45B
:105080000033002B16D04FF22443BB6212E011E034
:10509000FFF778FE02460B4B5B689B0B03F00303A4
:1050A00001335B00B2FBF3F3BB6204E000BF02E03C
:1050B00000BF00E000BFBB6A18463437BD4690BD54
:1050C000388F00080010024000127A0000093D00ED
:1050D000ABAAAAAA80B582B000AF78607B68002B2B
:1050E00001D1012376E07B685B6A002B08D17B68E5
:1050F0005B68B3F5827F09D07B680022DA6105E046
:105100007B6800221A617B6800225A617B6800225A
:105110009A627B6893F85130DBB2002B06D17B6832
:10512000002283F850207868FCF7C0FF7B680222D9
:1051300083F851207B681B681A687B681B6822F023
:1051400040021A607B685B6803F482727B689B682C
:1051500003F404431A437B68DB6803F400631A43D7
:105160007B681B6903F002031A437B685B6903F0E9
:1051700001031A437B689B6903F400731A437B683D
:10518000DB6903F038031A437B681B6A03F0800372
:1051900042EA03017B689B6A03F400527B681B6848
:1051A0000A431A607B689B691A0C7B681B6802F0D3
:1051B00004025A607B681B68DA697B681B6822F40A
:1051C0000062DA617B6800225A657B68012283F8FD
:1051D0005120002318460837BD4680BD80B58CB0ED
:1051E00000AFF860B9607A607B800123FB62002326
:1051F00087F82B30FB6893F85030012B01D1022344
:105200008AE1FB68012283F85020FDF7C1F978623A
:10521000FB6893F8513087F82330FB685B68FB61CB
:105220007B887B8397F82330012B0FD0FB69B3F584
:10523000827F07D1FB689B68002B03D197F823304E
:10524000042B03D0022387F82B305BE1BB68002BD3
:1052500005D07B68002B02D07B88002B03D1012373
:1052600087F82B304EE1FB6893F85130DBB2042B0A
:1052700003D0FB68052283F85120FB6800225A65A1
:10528000FB687A689A63FB687A88DA87FB687A88B1
:105290009A87FB68BA681A63FB687A88DA86FB68C3
:1052A0007A889A86FB6800221A64FB6800225A6496
:1052B000FB681B681B6803F04003402B07D0FB68AA
:1052C0001B681A68FB681B6842F040021A60FB68A2
:1052D000DB68B3F5006F78D1FB685B68002B02D008
:1052E0007B8B012B66D1FB681B6B1A88FB681B68E4
:1052F000DA60FB681B6B9A1CFB681A63FB68DB8E29
:105300009BB2013B9AB2FB68DA8653E0FB681B68EC
:105310009B6803F00203022B1BD1FB68DB8E9BB260
:10532000002B16D0FB6A012B13D1FB681B6B1A886C
:10533000FB681B68DA60FB681B6B9A1CFB681A63CE
:10534000FB68DB8E9BB2013B9AB2FB68DA860023D6
:10535000FB62FB681B689B6803F00103012B19D1FA
:10536000FB68DB8F9BB2002B14D0FB681B68DA68EC
:10537000FB689B6B92B21A80FB689B6B9A1CFB6864
:105380009A63FB68DB8F9BB2013B9AB2FB68DA87BA
:105390000123FB62FDF7FCF802467B6AD31ABA6B65
:1053A0009A4207D8BB6BB3F1FF3F03D0032387F8C2
:1053B0002B30A7E0FB68DB8E9BB2002BA6D1FB68ED
:1053C000DB8F9BB2002BA1D17CE0FB685B68002BDC
:1053D00002D07B8B012B6BD1FB681A6BFB681B68BF
:1053E0000C3312781A70FB681B6B5A1CFB681A632B
:1053F000FB68DB8E9BB2013B9AB2FB68DA8657E012
:10540000FB681B689B6803F00203022B1CD1FB683E
:10541000DB8E9BB2002B17D0FB6A012B14D1FB68EB
:105420001A6BFB681B680C3312781A70FB681B6BD5
:105430005A1CFB681A63FB68DB8E9BB2013B9AB275
:10544000FB68DA860023FB62FB681B689B6803F03D
:105450000103012B19D1FB68DB8F9BB2002B14D009
:10546000FB681B68DA68FB689B6BD2B21A70FB683A
:105470009B6B5A1CFB689A63FB68DB8F9BB2013BFA
:105480009AB2FB68DA870123FB62FDF781F80246D6
:105490007B6AD31ABA6B9A4203D8BB6BB3F1FF3F56
:1054A00002D1BB6B002B03D1032387F82B3029E0FB
:1054B000FB68DB8E9BB2002BA2D1FB68DB8F9BB21B
:1054C000002B9DD17A6AB96BF86800F0B1F80346F9
:1054D000002B06D0012387F82B30FB6820225A6569
:1054E00010E0FB689B68002B0BD100237B61FB68FD
:1054F0001B68DB687B61FB681B689B687B617B6961
:1055000000E000BFFB68012283F85120FB68002205
:1055100083F8502097F82B3018463037BD4680BDB1
:1055200080B588B000AFF860B9603B601346FB718E
:10553000FDF72EF80246BB6A9B1A3A681344FB61DA
:10554000FDF726F8B861394B1B685B011B0DFA6942
:1055500002FB03F37B6154E03B68B3F1FF3F50D0A3
:10556000FDF716F80246BB69D31AFA699A4202D9C6
:10557000FB69002B3DD1FB681B685A68FB681B6800
:1055800022F0E0025A60FB685B68B3F5827F11D1BC
:10559000FB689B68B3F5004F04D0FB689B68B3F5CC
:1055A000806F07D1FB681B681A68FB681B6822F0D4
:1055B00040021A60FB689B6AB3F5005F0FD1FB687D
:1055C0001B681A68FB681B6822F400521A60FB68AB
:1055D0001B681A68FB681B6842F400521A60FB687B
:1055E000012283F85120FB68002283F85020032316
:1055F00017E07B69002B01D10023FB617B69013B34
:105600007B61FB681B689A68BB681340BA689A4262
:105610000CBF01230023DBB21A46FB799A429BD1CF
:10562000002318462037BD4680BD00BF380000204B
:1056300080B586B002AFF860B9607A607B6800938D
:10564000BB6800228021F868FFF76AFF0346002B41
:1056500007D0FB685B6D43F02002FB685A650323AB
:1056600000E0002318461037BD4680BD80B582B0EB
:1056700000AF78607B68002B01D1012341E07B689B
:1056800093F83D30DBB2002B06D17B68002283F813
:105690003C207868FCF756FD7B68022283F83D20A9
:1056A0007B681A687B6804331946104600F0BAFA22
:1056B0007B68012283F846207B68012283F83E2024
:1056C0007B68012283F83F207B68012283F8402019
:1056D0007B68012283F841207B68012283F8422005
:1056E0007B68012283F843207B68012283F84420F1
:1056F0007B68012283F845207B68012283F83D20E6
:10570000002318460837BD4680BD000080B485B030
:1057100000AF78607B6893F83D30DBB2012B01D09D
:10572000012332E07B68022283F83D207B681B68FE
:10573000184A93420ED07B681B68B3F1804F09D0A2
:105740007B681B68144A934204D07B681B68134A29
:10575000934211D17B681B689B6803F00703FB60D1
:10576000FB68062B10D07B681B681A687B681B6877
:1057700042F001021A6007E07B681B681A687B68C8
:105780001B6842F001021A60002318461437BD4618
:1057900080BC7047002C014000040040000800401D
:1057A00080B485B000AF78607B6893F83D30DBB2A1
:1057B000012B01D001233AE07B68022283F83D20CF
:1057C0007B681B68DA687B681B6842F00102DA605C
:1057D0007B681B68184A93420ED07B681B68B3F144
:1057E000804F09D07B681B68144A934204D07B68C1
:1057F0001B68134A934211D17B681B689B6803F0B6
:105800000703FB60FB68062B10D07B681B681A68D7
:105810007B681B6842F001021A6007E07B681B6826
:105820001A687B681B6842F001021A600023184660
:105830001437BD4680BC7047002C01400004004076
:105840000008004080B582B000AF78607B681B68BC
:105850001B6903F00203022B22D17B681B68DB6803
:1058600003F00203022B1BD17B681B686FF002025E
:105870001A617B6801221A777B681B689B6903F0B9
:105880000303002B03D0786800F0B1F905E07868D5
:1058900000F0A4F9786800F0B3F97B6800221A7769
:1058A0007B681B681B6903F00403042B22D17B680F
:1058B0001B68DB6803F00403042B1BD17B681B68A7
:1058C0006FF004021A617B6802221A777B681B68FA
:1058D0009B6903F44073002B03D0786800F087F9CC
:1058E00005E0786800F07AF9786800F089F97B685B
:1058F00000221A777B681B681B6903F00803082BDA
:1059000022D17B681B68DB6803F00803082B1BD1DE
:105910007B681B686FF008021A617B6804221A77A3
:105920007B681B68DB6903F00303002B03D07868F6
:1059300000F05DF905E0786800F050F9786800F053
:105940005FF97B6800221A777B681B681B6903F08C
:105950001003102B22D17B681B68DB6803F0100357
:10596000102B1BD17B681B686FF010021A617B68DB
:1059700008221A777B681B68DB6903F44073002BED
:1059800003D0786800F033F905E0786800F026F974
:10599000786800F035F97B6800221A777B681B680D
:1059A0001B6903F00103012B0ED17B681B68DB68C8
:1059B00003F00103012B07D17B681B686FF0010224
:1059C0001A617868FBF79EF97B681B681B6903F016
:1059D0008003802B0ED17B681B68DB6803F080039B
:1059E000802B07D17B681B686FF080021A61786892
:1059F00000F077FA7B681B681B6903F04003402BBB
:105A00000ED17B681B68DB6803F04003402B07D195
:105A10007B681B686FF040021A61786800F0F9F843
:105A20007B681B681B6903F02003202B0ED17B6869
:105A30001B68DB6803F02003202B07D17B681B6801
:105A40006FF020021A61786800F042FA00BF083750
:105A5000BD4680BD80B584B000AF786039607B689A
:105A600093F83C30012B01D10223B3E07B68012283
:105A700083F83C207B68022283F83D207B681B680A
:105A80009B68FB60FB6823F07703FB60FB6823F4F3
:105A90007F43FB607B681B68FA689A603B681B6801
:105AA000B3F5005F3ED0B3F5005F00F28780B3F539
:105AB000805F00F08580B3F5805F7FD8702B1AD0AF
:105AC000702B7BD8602B50D0602B77D8502B3CD0DC
:105AD000502B73D8402B58D0402B6FD8302B64D02C
